:100D27002D2D2D524649442042617365642D2D2D8A
:100D370000417474656E64616E63652050726F6AFA
:100D4700002D2D45432D2D002D3135302D2D3135DD
:100D5700312D2D3136382D005363616E20596F7553
:100D67007220436172643A0052666964204E6F2EA6
:100D77002069733A003130303335414438353643D2
:100D87003100417474656E6465643A203135300012
:100D97004E6F2E3A202564003136303041444333BC
:100DA7003639413100417474656E6465643A2031A7
:100DB7003531003136303041424344313437410018
:100DC700417474656E6465643A2031363800436156
:100DD7007264204E6F7420466F756E64005472798A
:090DE70020416E6F746865720012
:0F102B00013A00023400000236000002380000D3
:060F7900D2927F057E000C
:100F7F00E4FDFCC3ED9FEE6480F8EC64809850159F
:100F8F00E4FBFA0BBB00010ABA04F8BBFBF50DBD7D
:050F9F0000010C80DEE2
:010FA400222A
:0A105200D290C291120F79C29222CF
:10100500A907E954F0F590121052E9C454F0F5908F
:0310150002105274
:08105C00C290120F79C292222A
:10101800A907E954F0F59012105CE9C454F0F59072
:0310280002105C57
:100FCC008B088A09890AAB08AA09A90A120DF060D4
:100FDC0013050AE50A7002050914F9120DF0FF1247
:050FEC00100580E22267
:100FF1007F021210187F281210187F0C1210187F10
:0410010001021018C0
:0C103B00758920759850758DFDD28E22AD
:0B1047003098FD85993AC298AF3A221C
:100B5C00D2A612103B120FF17BFF7A0D7927120FE0
:100B6C00CC7FC01210187BFF7A0D7938120FCC7F16
:100B7C00F47E01120F7F120FF17BFF7A0D79481270
:100B8C000FCC7FC01210187BFF7A0D794F120FCC4F
:100B9C007F907E01120F7F7F011210187BFF7A0D60
:100BAC00795F120FCC7FC0121018E4F53BF53C12A4
:100BBC0010477427253CF8A607053CE53C70020558
:100BCC003BC3940CE53B6480948040E3E4F5337FB5
:100BDC00011210187BFF7A0D796F120FCC7FC012A7
:100BEC0010187B007A007927120FCC7F647E0012DC
:100BFC000F7F750BFF750C0D750D7C750E00750F49
:100C0C000C7B007A007927120F0AEF702D0535E561
:100C1C0035700205347F011210187BFF7A0D79892B
:100C2C00120FCC7FC0121018750BFF750C0D750DC3
:100C3C009785340E85350F020CD2750BFF750C0D94
:100C4C00750D9F750E00750F0C7B007A00792712BD
:100C5C000F0AEF702C0537E537700205367F01124D
:100C6C0010187BFF7A0D79AC120FCC7FC0121018C4
:100C7C00750BFF750C0D750D9785360E85370F802E
:100C8C0045750BFF750C0D750DBA750E00750F0CB7
:100C9C007B007A007927120F0AEF70550539E53978
:100CAC00700205387F011210187BFF7A0D79C7127C
:100CBC000FCC7FC0121018750BFF750C0D750D97AE
:100CCC0085380E85390F7B007A00792212085C7BFF
:100CDC00007A007922120FCCD2A4C2A37F2C7E0101
:100CEC00120F7FC2A4D2A3120F7FC2A4C2A3020B05
:100CFC00A37F011210187BFF7A0D79D5120FCC7FD0
:100D0C00C01210187BFF7A0D79E4120FCCC2A67FAB
:0B0D1C002C7E01120F7FD2A6020BA359
:03000000020E7E6F
:0C0E7E00787FE4F6D8FD75813C020EC5BB
:100DF000BB010689828A83E0225002E722BBFE0201
:090E0000E32289828A83E4932233
:10080000E517240BF8E60517227808300702780B65
:10081000E475F001120E48020DF02000EB7F2ED29D
:10082000008018EF540F2490D43440D4FF30040BD0
:10083000EF24BFB41A0050032461FFE518600215CD
:1008400018051BE51B7002051A30070D7808E475C2
:10085000F001120E48EF020E36020FA57403D20704
:100860008003E4C207F5178B088A09890AE4F518A2
:10087000F51AF51BE51860077F2012083B80F57517
:1008800019FFC201C200C202C203C205C206C208E9
:10089000120809FF700D3007057F0012084CAF1BCE
:1008A000AE1A22B4255FC2D5C204120809FF24D0B3
:1008B000B40A00501A75F00A781830D50508B6FF4A
:1008C0000106C6A426F620D5047002D20380D924DE
:1008D000CFB41A00EF5004C2E5D204020A4CD20190
:1008E00080C6D20080C0D20280BCD2D580BAD205E8
:1008F00080B47F2012083B2002077401B518004025
:10090000F1120800FF12083B020874D208D20680D8
:1009100095120800FB120800FA120800F94A4B7001
:1009200006791D7A0B7BFF20022EE518602A7E00D7
:100930008E82758300120E0960060EEE651970F046
:10094000C2D5EBC0E0EAC0E0E9C0E0EE120A93D005
:10095000E0F9D0E0FAD0E0FB120DF0FF60AAEBC0A6
:10096000E0EAC0E0E9C0E012083BD0E02401F9D0A1
:10097000E03400FAD0E0FBE5190460DCD519D98039
:10098000877BFF7A0A798FD202809C791080027966
:1009900008C206C2088008D2D5790A8004790AC242
:1009A000D5E519047002F519E4FAFDFEFF120800FE
:1009B000FC7B08200113120800FD7B1030000A1296
:1009C0000800FE120800FF7B20EC3382D592D55040
:1009D00013C3E43000069FFFE49EFEE42001039D64
:1009E000FDE49CFCE4CBF8C201EC700CCFCECDCC86
:1009F000E824F8F870F38017C3EF33FFEE33FEED11
:100A000033FDEC33FCEB33FB994002FB0FD8E9EBF1
:100A1000300105F8D0E0C448B201C0E00AEC4D4E08
:100A20004F78207B0070C2EAB5190040BCC0E012CC
:100A30000A95D0F0D0E0200104C4C0E0C4B201C0E7
:100A4000F0120824D0F0D5F0EB020874120E580909
:100A50001153098B5808E24C08DE42098F4F099761
:0F0A60004409974908F743099D550981460981C3
:100A6F00450981470B3D5008E62D08EA2E090D2B4D
:100A7F0008EE23090B200B262A08A64800000905BB
:100A8F003F3F3F00790AA2D5200314300509B91062
:100A9F00020404B9080104A2D52006025001042063
:100AAF0002689202B518005034C0E07F203003195D
:100ABF007F30A20272067205500F120AECC202C2F8
:100ACF0006C205C2087F30800F300503E9C0E0126F
:100ADF00083B300503D0E0F9D0E0B518CC3005174E
:100AEF007F30B9100C12083B7F583004077F788095
:100AFF0003B9080312083B3002057F2D02083B7F24
:100B0F00202008F87F2B2006F322920280CF286E38
:100B1F00756C6C2900D2011208003001F8C20178FF
:100B2F001830D50108F60208A62D5043495812086F
:100B3F00002403B405004001E4900B389312082CF5
:0D0B4F00743A12082CD20375180402098BA9
:100F0A008B088A09890AAB0BAA0CA90D120DF0FEEF
:100F1A00AB08AA09A90A120DF0FF6E702BEF600D3B
:100F2A00E50F150F7002150E14450E70037F00228F
:100F3A007401250AF50AE43509F5097401250DF548
:100F4A000DE4350CF50C80BEAB08AA09A90A120DEE
:100F5A00F0FDD3EE6480F8ED64809840037F0122AF
:0F0F6A00AB0BAA0CA90D120DF0FFC3ED9FFF22D8
:100E8A00020B5CE493A3F8E493A34003F68001F217
:100E9A0008DFF48029E493A3F85407240CC8C33369
:100EAA00C4540F4420C8834004F456800146F6DF38
:100EBA00E4800B010204081020408090102BE47E8D
:100ECA00019360BCA3FF543F30E509541FFEE4932D
:100EDA00A360010ECF54C025E060A840B8E493A3F4
:100EEA00FAE493A3F8E493A3C8C582C8CAC583CA1F
:100EFA00F0A3C8C582C8CAC583CADFE9DEE780BED7
:01103A0000B5
:100E0900BB010CE58229F582E5833AF583E022509E
:100E190006E92582F8E622BBFE06E92582F8E222E8
:0D0E2900E58229F582E5833AF583E4932202
:100E3600BB010689828A83F0225002F722BBFE019B
:020E4600F32295
:100E4800FAE6FB0808E6F925F0F618E6CA3AF622AB
:100E5800D083D082F8E4937012740193700DA3A329
:100E680093F8740193F5828883E47374029368603D
:060E7800EFA3A3A380DF3D
:100FA500EFB40A07740D120FB0740A309811A8999E
:100FB500B8130CC2983098FDA899C298B811F630AC
:070FC50099FDC299F5992284
:00000001FF
