:100D64002D2D2D524649442042617365642D2D2D4D
:100D740000417474656E64616E63652050726F6ABD
:100D8400002D2D45432D2D002D3135302D2D3135A0
:100D9400312D2D3136382D005363616E20596F7516
:100DA4007220436172643A0052666964204E6F2E69
:100DB4002069733A00313030333541443835364395
:100DC40031002041747474656E64656400203135AB
:100DD4003020004174746E642E204E6F2E3A200031
:100DE40025640031363030414443333639413100D3
:100DF40020417474656E64656400203135312000CF
:100E040031363030414243443134374100203136A9
:100E14003820004361726420646F6E277420657803
:100E24006973740054727920416E6F74686572201E
:050E340043617264003F
:0310C700013600EF
:100FC200D2A4C2A37F2C7E01120FD4C2A4C2A37FDB
:020FD200C81E37
:100FD400E4FDFCC3ED9FEE6480F8EC64809850154A
:100FE400E4FBFA0BBB00010ABA04F8BBFBF50DBD28
:050FF40000010C80DE8D
:010FF90022D5
:10109200D290C291D2927F057E00120FD4C29222C8
:10107F00A907E954F0F590121092E9C454F0F590D5
:03108F00021092BA
:0E10A200C290D2927F057E00120FD4C292221D
:09104F007FC87E00120FD47F015E
:10105800A907E954F0F5901210A2E9C454F0F590EC
:031068000210A2D1
:0B0FFA007FC01210587BFF7A0D79D7E2
:101005008B088A09890AAB08AA09A90A120E39FFB1
:10101500601012107F7401250AF50AE43509F509F7
:0310250080E42242
:10106B007F021210587F281210587F0E1210587FD3
:04107B000102105806
:0C10B000758920759850758DFDD28E2238
:0B10BC003098FD859936C298AF3622AF
:100B5C00D2A61210B012106B7BFF7A0D79641210B2
:100B6C00057FC01210587BFF7A0D79751210057F26
:100B7C00F47E01120FD412106B7BFF7A0D79851263
:100B8C0010057FC01210587BFF7A0D798C1210055E
:100B9C007F907E01120FD47F011210587BFF7A0DCB
:100BAC00799C1210057FC0121058E4F569F5691292
:100BBC0010BC74232569F8A6070569C3E569648030
:100BCC00948C40EB74232569F8E4F67F01121058DD
:100BDC007BFF7A0D79AC1210057FC0121058E4F52A
:100BEC006974232569F8E6FF12107F0569C3E5696E
:100BFC006480948C40EB7F647E00120FD4750BFFE5
:100C0C00750C0D750DB9750E00750F0C7B007A0007
:100C1C007923120F53EF70500531E5317002053016
:100C2C007F011210587BFF7A0D79C6121005121035
:100C3C004F7BFF7A0D79D1121005120FFA750BFF4D
:100C4C00750C0D750DE485300E85310F7B007A0027
:100C5C00792212085C7B007A007922121005120F9F
:100C6C00C2C2A4D2A3020BA3750BFF750C0D750D9C
:100C7C00E7750E00750F0C7B007A007923120F5369
:100C8C00EF70360533E533700205327F01121058D0
:100C9C007BFF7A0D79F412100512104F7BFF7A0D41
:100CAC0079FE121005120FFA750BFF750C0D750DF0
:100CBC00E485320E85330F804F750BFF750C0E7566
:100CCC000D04750E00750F0C7B007A007923120F42
:100CDC0053EF705A0535E535700205347F0112105B
:100CEC00587BFF7A0D79F412100512104F7BFF7AA6
:100CFC000E7911121005120FFA750BFF750C0D758C
:100D0C000DE485340E85350F7B007A0079221208AC
:100D1C005C7B007A007922121005120FC2C2A4D299
:100D2C00A37F2C0E120FD4C2A4C2A3020BA37F016B
:100D3C001210587BFF7A0E79171210057FC0121013
:100D4C00587BFF7A0E7928121005C2A67F2C7E01E3
:080D5C00120FD4D2A6020BA372
:03000000020EC726
:0C0EC700787FE4F6D8FD758169020F0EFB
:100E3900BB010689828A83E0225002E722BBFE02B7
:090E4900E32289828A83E49322EA
:10080000E517240BF8E60517227808300702780B65
:10081000E475F001120E91020E392000EB7F2ED20A
:10082000008018EF540F2490D43440D4FF30040BD0
:10083000EF24BFB41A0050032461FFE518600215CD
:1008400018051BE51B7002051A30070D7808E475C2
:10085000F001120E91EF020E7F0210287403D207EE
:100860008003E4C207F5178B088A09890AE4F518A2
:10087000F51AF51BE51860077F2012083B80F57517
:1008800019FFC201C200C202C203C205C206C208E9
:10089000120809FF700D3007057F0012084CAF1BCE
:1008A000AE1A22B4255FC2D5C204120809FF24D0B3
:1008B000B40A00501A75F00A781830D50508B6FF4A
:1008C0000106C6A426F620D5047002D20380D924DE
:1008D000CFB41A00EF5004C2E5D204020A4CD20190
:1008E00080C6D20080C0D20280BCD2D580BAD205E8
:1008F00080B47F2012083B2002077401B518004025
:10090000F1120800FF12083B020874D208D20680D8
:1009100095120800FB120800FA120800F94A4B7001
:1009200006791D7A0B7BFF20022EE518602A7E00D7
:100930008E82758300120E5260060EEE651970F0FD
:10094000C2D5EBC0E0EAC0E0E9C0E0EE120A93D005
:10095000E0F9D0E0FAD0E0FB120E39FF60AAEBC05C
:10096000E0EAC0E0E9C0E012083BD0E02401F9D0A1
:10097000E03400FAD0E0FBE5190460DCD519D98039
:10098000877BFF7A0A798FD202809C791080027966
:1009900008C206C2088008D2D5790A8004790AC242
:1009A000D5E519047002F519E4FAFDFEFF120800FE
:1009B000FC7B08200113120800FD7B1030000A1296
:1009C0000800FE120800FF7B20EC3382D592D55040
:1009D00013C3E43000069FFFE49EFEE42001039D64
:1009E000FDE49CFCE4CBF8C201EC700CCFCECDCC86
:1009F000E824F8F870F38017C3EF33FFEE33FEED11
:100A000033FDEC33FCEB33FB994002FB0FD8E9EBF1
:100A1000300105F8D0E0C448B201C0E00AEC4D4E08
:100A20004F78207B0070C2EAB5190040BCC0E012CC
:100A30000A95D0F0D0E0200104C4C0E0C4B201C0E7
:100A4000F0120824D0F0D5F0EB020874120EA109C0
:100A50001153098B5808E24C08DE42098F4F099761
:0F0A60004409974908F743099D550981460981C3
:100A6F00450981470B3D5008E62D08EA2E090D2B4D
:100A7F0008EE23090B200B262A08A64800000905BB
:100A8F003F3F3F00790AA2D5200314300509B91062
:100A9F00020404B9080104A2D52006025001042063
:100AAF0002689202B518005034C0E07F203003195D
:100ABF007F30A20272067205500F120AECC202C2F8
:100ACF0006C205C2087F30800F300503E9C0E0126F
:100ADF00083B300503D0E0F9D0E0B518CC3005174E
:100AEF007F30B9100C12083B7F583004077F788095
:100AFF0003B9080312083B3002057F2D02083B7F24
:100B0F00202008F87F2B2006F322920280CF286E38
:100B1F00756C6C2900D2011208003001F8C20178FF
:100B2F001830D50108F60208A62D5043495812086F
:100B3F00002403B405004001E4900B389312082CF5
:0D0B4F00743A12082CD20375180402098BA9
:100F53008B088A09890AAB0BAA0CA90D120E39FE5C
:100F6300AB08AA09A90A120E39FF6E702BEF600DA8
:100F7300E50F150F7002150E14450E70037F002246
:100F83007401250AF50AE43509F5097401250DF5FF
:100F93000DE4350CF50C80BEAB08AA09A90A120EA4
:100FA30039FDD3EE6480F8ED64809840037F01221D
:0F0FB300AB0BAA0CA90D120E39FFC3ED9FFF2245
:100ED300020B5CE493A3F8E493A34003F68001F2CE
:100EE30008DFF48029E493A3F85407240CC8C33320
:100EF300C4540F4420C8834004F456800146F6DFEF
:100F0300E4800B01020408102040809010C7E47EA7
:100F1300019360BCA3FF543F30E509541FFEE493E3
:100F2300A360010ECF54C025E060A840B8E493A3AA
:100F3300FAE493A3F8E493A3C8C582C8CAC583CAD5
:100F4300F0A3C8C582C8CAC583CADFE9DEE780BE8D
:0110CA000025
:100E5200BB010CE58229F582E5833AF583E0225055
:100E620006E92582F8E622BBFE06E92582F8E2229F
:0D0E7200E58229F582E5833AF583E49322B9
:100E7F00BB010689828A83F0225002F722BBFE0152
:020E8F00F3224C
:100E9100FAE6FB0808E6F925F0F618E6CA3AF62262
:100EA100D083D082F8E4937012740193700DA3A3E0
:100EB10093F8740193F5828883E4737402936860F4
:060EC100EFA3A3A380DFF4
:10102800EFB40A07740D121033740A309811A89996
:10103800B8130CC2983098FDA899C298B811F63028
:0710480099FDC299F5992200
:00000001FF
